:02000000B9291C
:10000800FF00030E8301B1000A08B2008A017008DC
:10001800A3007B08A2007C08A1007D08A0000408BA
:10002800A400061819288B108C28061E54280330A3
:10003800C9000030CA00FF308800870189018501A6
:100048008030F00080304A067002031D2D284908D0
:10005800003C03184928851488114908253E840066
:10006800000887000B30FB002630FC005D30FD00E7
:10007800FD0B3C28FC0B3C28FB0B3C280000000037
:100088000130C902031CCA0324288510870188157A
:10009800061E5328061C5328091405154C288C28BD
:1000A8000330CB000030CC00FF3088008701890185
:1000B80085018030F00080304C067002031D6628F0
:1000C8004B08003C03188228891488104B08253EE9
:1000D8008400000887000B30FB002630FC005D30F0
:1000E800FD00FD0B7528FC0B7528FB0B752800001F
:1000F80000000130CB02031CCC035D288910870166
:100108008814061A8C28061C8C28051409158528BD
:100118002308F0002208FB002108FC002008FD004D
:100128002408840032088A00310E8300FF0E7F0EF7
:020138000900BC
:10013A00710DF80DF90D7408F8027508031C750F96
:10014A00F902F00DF10D0F30FC00710DF80DF90DEB
:10015A007408701CB628F8027508031C750FF9029A
:10016A00BB28F80775080318750FF907F00DF10D8C
:10017A00FC0BAA287018C7287408F8077508031812
:08018A00750FF90700000800E1
:0E0192008312031330088A002F088200080031
:1001A0008316031387018801831287018801831650
:1001B00086018312860183168901831289018316C1
:1001C0008501831285018316061483120610831697
:1001D0000616831206128B170B16831601170800DA
:1001E000C9208A110A128000840AAF0A0319B00AD2
:0801F000F003031DF0280800D4
:1001F80083120313F101F20180307206F00080309F
:100208007002031D09291930710203184F290810BB
:100218004108253E8400000887001A30FC00F830A9
:10022800FD00FD0B1529FC0B15290000081488108A
:100238004308253E8400000887001A30FC00F83087
:10024800FD00FD0B2529FC0B252900008814081149
:100258004508253E8400000887001A30FC00F83065
:10026800FD00FD0B3529FC0B352900000815881108
:100278004708253E8400000887001A30FC00F83043
:10028800FD00FD0B4529FC0B452900008815F10AE6
:080298000319F20A0029080015
:1002A000831203137408003A031D5F297508003A8E
:1002B000031D5F29FF30F0007F30F100B829831261
:1002C0000313FD01F901F8017108700403190034EA
:1002D00071087506FA00FA1BFD09FB01F51F752967
:1002E000F409F509F40A0319F50AF11F7C29F0094C
:1002F000F109F00A0319F10A71087504FA00FA1BF2
:1003000091299D207B18A429FD1F0034F009F109D3
:10031000F00A0319F10AF809F909F80A0319F90AA8
:100320000034F51FA029F11B9C297108F900700801
:10033000F800F101F0018429F101F001F00A003424
:10034000F109F009FB0A8129F80A0319F90A74086E
:100350007802031D842975087902031D8429F90197
:10036000F801F00A0319F10AF11F84290000FF3493
:02037000080083
:10037200BF3083120313A5008630A600DB30A7002E
:10038200CF30A800E630A900ED30AA00FD30AB0066
:100392008730AC00FF30AD00EF30AE00D0200F3020
:1003A2008312B7000030B8008030F0008030380689
:1003B2007002031DDE293708003C0318562A8030DC
:1003C200F000803038067002031DE9293708033C2B
:1003D2000318F42903303702B3000030031C013E36
:1003E2003802B400F8293708B3003808B40089107D
:1003F20009158030F000803038067002031D032A90
:100402003708033C0318072A0514082A85140A3002
:10041200F4000030F5003708F0003808F1005021F0
:100422007008BF007108C0000A30F4000030F50007
:100432003708F0003808F10050217808F0007908F8
:10044200F1007008BD007108BE000A30F4000030EF
:10045200F5003308F0003408F10050217008BB00A9
:100462007108BC000A30F4000030F5003308F000D7
:100472003408F10050217808F0007908F1003F08B3
:10048200C1004008C2003D08C3003E08C4003B084A
:10049200C5003C08C6007008C7007108C800FC20EF
:1004A2000130B702031CB803D5291730B900003058
:1004B200BA008030F00080303A067002031D632AD1
:1004C2003908003C0318DD2A8030F00080303A06FB
:1004D2007002031D6E2A3908033C0318792A03307F
:1004E2003902B5000030031C013E3A02B6007D2AF3
:1004F2003908B5003A08B600091185100515803093
:10050200F00080303A067002031D892A3908033C44
:1005120003188D2A09148F2A091089140A30F4004D
:100522000030F5003508F0003608F100502170085F
:10053200BF007108C0000A30F4000030F500350831
:10054200F0003608F10050217808F0007908F10037
:100552007008BD007108BE000A30F4000030F500DA
:100562003908F0003A08F10050217008BB00710808
:10057200BC000A30F4000030F5003908F0003A08F7
:10058200F10050217808F0007908F1003F08C1001D
:100592004008C2003D08C3003E08C4003B08C50035
:1005A2003C08C6007008C7007108C800FC20013072
:0C05B200B902031CBA035A2AD029DE2A21
:02400E004A2F37
:00000001FF
