:02000000BA291B
:10000800FF00030E8301B1000A08B2008A017008DC
:10001800A3007B08A2007C08A1007D08A0000408BA
:10002800A400061819288B108C28061E54280330A3
:10003800C9000030CA00FF308800870189018501A6
:100048008030F00080304A067002031D2D284908D0
:10005800003C03184928851488114908253E840066
:10006800000887000B30FB002630FC005D30FD00E7
:10007800FD0B3C28FC0B3C28FB0B3C280000000037
:100088000130C902031CCA0324288510870188157A
:10009800061E5328061C5328091405154C288C28BD
:1000A8000330CB000030CC00FF3088008701890185
:1000B80085018030F00080304C067002031D6628F0
:1000C8004B08003C03188228891488104B08253EE9
:1000D8008400000887000B30FB002630FC005D30F0
:1000E800FD00FD0B7528FC0B7528FB0B752800001F
:1000F80000000130CB02031CCC035D288910870166
:100108008814061A8C28061C8C28051409158528BD
:100118002308F0002208FB002108FC002008FD004D
:100128002408840032088A00310E8300FF0E7F0EF7
:020138000900BC
:10013A00710DF80DF90D7408F8027508031C750F96
:10014A00F902F00DF10D0F30FC00710DF80DF90DEB
:10015A007408701CB628F8027508031C750FF9029A
:10016A00BB28F80775080318750FF907F00DF10D8C
:10017A00FC0BAA287018C7287408F8077508031812
:08018A00750FF90700000800E1
:0E0192008312031330088A002F088200080031
:1001A000831603138701880183128701FF308800BB
:1001B00083168601831286018316890183128901C1
:1001C0008316850183128501831606148312061097
:1001D00083160616831206128B170B168316011749
:0201E000080015
:1001E200C9208A110A128000840AAF0A0319B00AD0
:0801F200F003031DF1280800D1
:1001FA0083120313F101F20180307206F00080309D
:10020A007002031D0A2919307102031850290810B7
:10021A004108253E8400000887001A30FC00F830A7
:10022A00FD00FD0B1629FC0B162900000814881086
:10023A004308253E8400000887001A30FC00F83085
:10024A00FD00FD0B2629FC0B262900008814081145
:10025A004508253E8400000887001A30FC00F83063
:10026A00FD00FD0B3629FC0B362900000815881104
:10027A004708253E8400000887001A30FC00F83041
:10028A00FD00FD0B4629FC0B462900008815F10AE2
:08029A000319F20A0129080012
:1002A200831203137408003A031D60297508003A8B
:1002B200031D6029FF30F0007F30F100B92983125D
:1002C2000313FD01F901F8017108700403190034E8
:1002D20071087506FA00FA1BFD09FB01F51F762964
:1002E200F409F509F40A0319F50AF11F7D29F00949
:1002F200F109F00A0319F10A71087504FA00FA1BF0
:1003020092299D207B18A529FD1F0034F009F109CF
:10031200F00A0319F10AF809F909F80A0319F90AA6
:100322000034F51FA129F11B9D297108F9007008FD
:10033200F800F101F0018529F101F001F00A003421
:10034200F109F009FB0A8229F80A0319F90A74086B
:100352007802031D852975087902031D8529F90193
:10036200F801F00A0319F10AF11F85290000FF3490
:02037200080081
:10037400BF3083120313A5008630A600DB30A7002C
:10038400CF30A800E630A900ED30AA00FD30AB0064
:100394008730AC00FF30AD00EF30AE00D0200F301E
:1003A4008312B7000030B8008030F0008030380687
:1003B4007002031DDF293708003C0318572A8030D8
:1003C400F000803038067002031DEA293708033C28
:1003D4000318F52903303702B3000030031C013E33
:1003E4003802B400F9293708B3003808B40089107A
:1003F40009158030F000803038067002031D042A8D
:100404003708033C0318082A0514092A85140A30FE
:10041400F4000030F5003708F0003808F1005121ED
:100424007008BF007108C0000A30F4000030F50005
:100434003708F0003808F10051217808F0007908F5
:10044400F1007008BD007108BE000A30F4000030ED
:10045400F5003308F0003408F10051217008BB00A6
:100464007108BC000A30F4000030F5003308F000D5
:100474003408F10051217808F0007908F1003F08B0
:10048400C1004008C2003D08C3003E08C4003B0848
:10049400C5003C08C6007008C7007108C800FD20EC
:1004A4000130B702031CB803D6291730B900003055
:1004B400BA008030F00080303A067002031D642ACE
:1004C4003908003C0318DE2A8030F00080303A06F8
:1004D4007002031D6F2A3908033C03187A2A03307B
:1004E4003902B5000030031C013E3A02B6007E2AF0
:1004F4003908B5003A08B600091185100515803091
:10050400F00080303A067002031D8A2A3908033C41
:1005140003188E2A0914902A091089140A30F40049
:100524000030F5003508F0003608F100512170085C
:10053400BF007108C0000A30F4000030F50035082F
:10054400F0003608F10051217808F0007908F10034
:100554007008BD007108BE000A30F4000030F500D8
:100564003908F0003A08F10051217008BB00710805
:10057400BC000A30F4000030F5003908F0003A08F5
:10058400F10051217808F0007908F1003F08C1001A
:100594004008C2003D08C3003E08C4003B08C50033
:1005A4003C08C6007008C7007108C800FD2001306F
:0C05B400B902031CBA035B2AD129DF2A1C
:02400E004A2F37
:00000001FF
