:02000000B8291D
:10000800FF00030E8301B1000A08B2008A017008DC
:10001800A3007B08A2007C08A1007D08A0000408BA
:10002800A400061819288B108A28061E53280330A6
:10003800C9000030CA00FF30880087018501803080
:10004800F00080304A067002031D2C284908003C45
:1000580003184828851488114908253E840000089B
:1000680087000B30FB002630FC005D30FD00FD0BE7
:100078003B28FC0B3B28FB0B3B2800000000013011
:10008800C902031CCA032328851087018815061E88
:100098005228061C5228091405154B288A280330B3
:1000A800CB000030CC00FF30880087018901803008
:1000B800F00080304C067002031D64284B08003C99
:1000C80003188028891488104B08253E84000008EE
:1000D80087000B30FB002630FC005D30FD00FD0B77
:1000E8007328FC0B7328FB0B7328000000000130F9
:1000F800CB02031CCC035B28891087018814061ADD
:100108008A28061C8A280514091583282308F00064
:100118002208FB002108FC002008FD0024088400B8
:0E01280032088A00310E8300FF0E7F0E0900A0
:10013600710DF80DF90D7408F8027508031C750F9A
:10014600F902F00DF10D0F30FC00710DF80DF90DEF
:100156007408701CB428F8027508031C750FF902A0
:10016600B928F80775080318750FF907F00DF10D92
:10017600FC0BA8287018C5287408F807750803181A
:08018600750FF90700000800E5
:0E018E008312031330088A002F088200080035
:10019C00831603138701880183128701FF308800BF
:1001AC0083168601831286018316890183128901C5
:1001BC00831685018312850183160614831206109B
:1001CC0083160616831206128B170B16831601174D
:0201DC00080019
:1001DE00C7208A110A128000840AAF0A0319B00AD6
:0801EE00F003031DEF280800D7
:1001F60083120313F101F20180307206F0008030A1
:100206007002031D08291930710203184E290810BF
:100216004108253E8400000887001A30FC00F830AB
:10022600FD00FD0B1429FC0B14290000081488108E
:100236004308253E8400000887001A30FC00F83089
:10024600FD00FD0B2429FC0B24290000881408114D
:100256004508253E8400000887001A30FC00F83067
:10026600FD00FD0B3429FC0B34290000081588110C
:100276004708253E8400000887001A30FC00F83045
:10028600FD00FD0B4429FC0B442900008815F10AEA
:080296000319F20AFF28080019
:10029E00831203137408003A031D5E297508003A91
:1002AE00031D5E29FF30F0007F30F100B729831265
:1002BE000313FD01F901F8017108700403190034EC
:1002CE0071087506FA00FA1BFD09FB01F51F74296A
:1002DE00F409F509F40A0319F50AF11F7B29F0094F
:1002EE00F109F00A0319F10A71087504FA00FA1BF4
:1002FE0090299B207B18A329FD1F0034F009F109DA
:10030E00F00A0319F10AF809F909F80A0319F90AAA
:10031E000034F51F9F29F11B9B297108F900700805
:10032E00F800F101F0018329F101F001F00A003427
:10033E00F109F009FB0A8029F80A0319F90A740871
:10034E007802031D832975087902031D8329F9019B
:10035E00F801F00A0319F10AF11F83290000FF3496
:02036E00080085
:10037000BF3083120313A5008630A600DB30A70030
:10038000CF30A800E630A900ED30AA00FD30AB0068
:100390008730AC00FF30AD00EF30AE00CE200F3024
:1003A0008312B7000030B8008030F000803038068B
:1003B0007002031DDD293708003C0318552A8030E0
:1003C000F000803038067002031DE8293708033C2E
:1003D0000318F32903303702B3000030031C013E39
:1003E0003802B400F7293708B3003808B400891080
:1003F00009158030F000803038067002031D022A93
:100400003708033C0318062A0514072A85140A3006
:10041000F4000030F5003708F0003808F1004F21F3
:100420007008BF007108C0000A30F4000030F50009
:100430003708F0003808F1004F217808F0007908FB
:10044000F1007008BD007108BE000A30F4000030F1
:10045000F5003308F0003408F1004F217008BB00AC
:100460007108BC000A30F4000030F5003308F000D9
:100470003408F1004F217808F0007908F1003F08B6
:10048000C1004008C2003D08C3003E08C4003B084C
:10049000C5003C08C6007008C7007108C800FB20F2
:1004A0000130B702031CB803D4291730B90000305B
:1004B000BA008030F00080303A067002031D622AD4
:1004C0003908003C0318DC2A8030F00080303A06FE
:1004D0007002031D6D2A3908033C0318782A033083
:1004E0003902B5000030031C013E3A02B6007C2AF6
:1004F0003908B5003A08B600091185100515803095
:10050000F00080303A067002031D882A3908033C47
:1005100003188C2A09148E2A091089140A30F40051
:100520000030F5003508F0003608F1004F21700862
:10053000BF007108C0000A30F4000030F500350833
:10054000F0003608F1004F217808F0007908F1003A
:100550007008BD007108BE000A30F4000030F500DC
:100560003908F0003A08F1004F217008BB0071080B
:10057000BC000A30F4000030F5003908F0003A08F9
:10058000F1004F217808F0007908F1003F08C10020
:100590004008C2003D08C3003E08C4003B08C50037
:1005A0003C08C6007008C7007108C800FB20013075
:0C05B000B902031CBA03592ACF29DD2A26
:02400E004A2F37
:00000001FF
